{
  "contractName": "CryptoPals",
  "abi": [
    {
      "inputs": [
        {
          "internalType": "string",
          "name": "baseTokenURI",
          "type": "string"
        }
      ],
      "stateMutability": "nonpayable",
      "type": "constructor"
    },
    {
      "anonymous": false,
      "inputs": [
        {
          "indexed": true,
          "internalType": "address",
          "name": "owner",
          "type": "address"
        },
        {
          "indexed": true,
          "internalType": "address",
          "name": "approved",
          "type": "address"
        },
        {
          "indexed": true,
          "internalType": "uint256",
          "name": "tokenId",
          "type": "uint256"
        }
      ],
      "name": "Approval",
      "type": "event"
    },
    {
      "anonymous": false,
      "inputs": [
        {
          "indexed": true,
          "internalType": "address",
          "name": "owner",
          "type": "address"
        },
        {
          "indexed": true,
          "internalType": "address",
          "name": "operator",
          "type": "address"
        },
        {
          "indexed": false,
          "internalType": "bool",
          "name": "approved",
          "type": "bool"
        }
      ],
      "name": "ApprovalForAll",
      "type": "event"
    },
    {
      "anonymous": false,
      "inputs": [
        {
          "indexed": true,
          "internalType": "address",
          "name": "from",
          "type": "address"
        },
        {
          "indexed": true,
          "internalType": "address",
          "name": "to",
          "type": "address"
        },
        {
          "indexed": true,
          "internalType": "uint256",
          "name": "tokenId",
          "type": "uint256"
        }
      ],
      "name": "Transfer",
      "type": "event"
    },
    {
      "inputs": [
        {
          "internalType": "address",
          "name": "to",
          "type": "address"
        },
        {
          "internalType": "uint256",
          "name": "tokenId",
          "type": "uint256"
        }
      ],
      "name": "approve",
      "outputs": [],
      "stateMutability": "nonpayable",
      "type": "function"
    },
    {
      "inputs": [
        {
          "internalType": "address",
          "name": "owner",
          "type": "address"
        }
      ],
      "name": "balanceOf",
      "outputs": [
        {
          "internalType": "uint256",
          "name": "",
          "type": "uint256"
        }
      ],
      "stateMutability": "view",
      "type": "function",
      "constant": true
    },
    {
      "inputs": [
        {
          "internalType": "uint256",
          "name": "tokenId",
          "type": "uint256"
        }
      ],
      "name": "getApproved",
      "outputs": [
        {
          "internalType": "address",
          "name": "",
          "type": "address"
        }
      ],
      "stateMutability": "view",
      "type": "function",
      "constant": true
    },
    {
      "inputs": [
        {
          "internalType": "address",
          "name": "owner",
          "type": "address"
        },
        {
          "internalType": "address",
          "name": "operator",
          "type": "address"
        }
      ],
      "name": "isApprovedForAll",
      "outputs": [
        {
          "internalType": "bool",
          "name": "",
          "type": "bool"
        }
      ],
      "stateMutability": "view",
      "type": "function",
      "constant": true
    },
    {
      "inputs": [],
      "name": "name",
      "outputs": [
        {
          "internalType": "string",
          "name": "",
          "type": "string"
        }
      ],
      "stateMutability": "view",
      "type": "function",
      "constant": true
    },
    {
      "inputs": [
        {
          "internalType": "uint256",
          "name": "tokenId",
          "type": "uint256"
        }
      ],
      "name": "ownerOf",
      "outputs": [
        {
          "internalType": "address",
          "name": "",
          "type": "address"
        }
      ],
      "stateMutability": "view",
      "type": "function",
      "constant": true
    },
    {
      "inputs": [
        {
          "internalType": "address",
          "name": "from",
          "type": "address"
        },
        {
          "internalType": "address",
          "name": "to",
          "type": "address"
        },
        {
          "internalType": "uint256",
          "name": "tokenId",
          "type": "uint256"
        }
      ],
      "name": "safeTransferFrom",
      "outputs": [],
      "stateMutability": "nonpayable",
      "type": "function"
    },
    {
      "inputs": [
        {
          "internalType": "address",
          "name": "from",
          "type": "address"
        },
        {
          "internalType": "address",
          "name": "to",
          "type": "address"
        },
        {
          "internalType": "uint256",
          "name": "tokenId",
          "type": "uint256"
        },
        {
          "internalType": "bytes",
          "name": "data",
          "type": "bytes"
        }
      ],
      "name": "safeTransferFrom",
      "outputs": [],
      "stateMutability": "nonpayable",
      "type": "function"
    },
    {
      "inputs": [
        {
          "internalType": "address",
          "name": "operator",
          "type": "address"
        },
        {
          "internalType": "bool",
          "name": "approved",
          "type": "bool"
        }
      ],
      "name": "setApprovalForAll",
      "outputs": [],
      "stateMutability": "nonpayable",
      "type": "function"
    },
    {
      "inputs": [
        {
          "internalType": "bytes4",
          "name": "interfaceId",
          "type": "bytes4"
        }
      ],
      "name": "supportsInterface",
      "outputs": [
        {
          "internalType": "bool",
          "name": "",
          "type": "bool"
        }
      ],
      "stateMutability": "view",
      "type": "function",
      "constant": true
    },
    {
      "inputs": [],
      "name": "symbol",
      "outputs": [
        {
          "internalType": "string",
          "name": "",
          "type": "string"
        }
      ],
      "stateMutability": "view",
      "type": "function",
      "constant": true
    },
    {
      "inputs": [
        {
          "internalType": "address",
          "name": "from",
          "type": "address"
        },
        {
          "internalType": "address",
          "name": "to",
          "type": "address"
        },
        {
          "internalType": "uint256",
          "name": "tokenId",
          "type": "uint256"
        }
      ],
      "name": "transferFrom",
      "outputs": [],
      "stateMutability": "nonpayable",
      "type": "function"
    },
    {
      "inputs": [
        {
          "internalType": "address",
          "name": "to",
          "type": "address"
        }
      ],
      "name": "mintRare",
      "outputs": [
        {
          "internalType": "uint256",
          "name": "",
          "type": "uint256"
        }
      ],
      "stateMutability": "nonpayable",
      "type": "function"
    },
    {
      "inputs": [
        {
          "internalType": "address",
          "name": "to",
          "type": "address"
        }
      ],
      "name": "mintCommon",
      "outputs": [
        {
          "internalType": "uint256",
          "name": "",
          "type": "uint256"
        }
      ],
      "stateMutability": "nonpayable",
      "type": "function"
    },
    {
      "inputs": [
        {
          "internalType": "uint256",
          "name": "tokenId",
          "type": "uint256"
        }
      ],
      "name": "tokenURI",
      "outputs": [
        {
          "internalType": "string",
          "name": "",
          "type": "string"
        }
      ],
      "stateMutability": "view",
      "type": "function",
      "constant": true
    }
  ],
  "bytecode": "0x608060405260006006556101f46007553480156200001c57600080fd5b5060405162002d5a38038062002d5a833981810160405281019062000042919062000224565b6040518060400160405280600b81526020017f43727970746f2050616c730000000000000000000000000000000000000000008152506040518060400160405280600281526020017f43500000000000000000000000000000000000000000000000000000000000008152508160009080519060200190620000c692919062000102565b508060019080519060200190620000df92919062000102565b5050508060089080519060200190620000fa92919062000102565b5050620003d9565b8280546200011090620002fe565b90600052602060002090601f01602090048101928262000134576000855562000180565b82601f106200014f57805160ff191683800117855562000180565b8280016001018555821562000180579182015b828111156200017f57825182559160200191906001019062000162565b5b5090506200018f919062000193565b5090565b5b80821115620001ae57600081600090555060010162000194565b5090565b6000620001c9620001c38462000292565b62000269565b905082815260208101848484011115620001e257600080fd5b620001ef848285620002c8565b509392505050565b600082601f8301126200020957600080fd5b81516200021b848260208601620001b2565b91505092915050565b6000602082840312156200023757600080fd5b600082015167ffffffffffffffff8111156200025257600080fd5b6200026084828501620001f7565b91505092915050565b60006200027562000288565b905062000283828262000334565b919050565b6000604051905090565b600067ffffffffffffffff821115620002b057620002af62000399565b5b620002bb82620003c8565b9050602081019050919050565b60005b83811015620002e8578082015181840152602081019050620002cb565b83811115620002f8576000848401525b50505050565b600060028204905060018216806200031757607f821691505b602082108114156200032e576200032d6200036a565b5b50919050565b6200033f82620003c8565b810181811067ffffffffffffffff8211171562000361576200036062000399565b5b80604052505050565b7f4e487b7100000000000000000000000000000000000000000000000000000000600052602260045260246000fd5b7f4e487b7100000000000000000000000000000000000000000000000000000000600052604160045260246000fd5b6000601f19601f8301169050919050565b61297180620003e96000396000f3fe608060405234801561001057600080fd5b50600436106100f55760003560e01c806370a0823111610097578063b88d4fde11610066578063b88d4fde14610296578063c87b56dd146102b2578063d47e107e146102e2578063e985e9c514610312576100f5565b806370a08231146101fc5780638d36f8f41461022c57806395d89b411461025c578063a22cb4651461027a576100f5565b8063095ea7b3116100d3578063095ea7b31461017857806323b872dd1461019457806342842e0e146101b05780636352211e146101cc576100f5565b806301ffc9a7146100fa57806306fdde031461012a578063081812fc14610148575b600080fd5b610114600480360381019061010f9190611cb1565b610342565b60405161012191906120aa565b60405180910390f35b610132610424565b60405161013f91906120c5565b60405180910390f35b610162600480360381019061015d9190611d03565b6104b6565b60405161016f9190612043565b60405180910390f35b610192600480360381019061018d9190611c75565b6104fc565b005b6101ae60048036038101906101a99190611b6f565b610614565b005b6101ca60048036038101906101c59190611b6f565b610674565b005b6101e660048036038101906101e19190611d03565b610694565b6040516101f39190612043565b60405180910390f35b61021660048036038101906102119190611b0a565b61071b565b6040516102239190612287565b60405180910390f35b61024660048036038101906102419190611b0a565b6107d3565b6040516102539190612287565b60405180910390f35b610264610879565b60405161027191906120c5565b60405180910390f35b610294600480360381019061028f9190611c39565b61090b565b005b6102b060048036038101906102ab9190611bbe565b610921565b005b6102cc60048036038101906102c79190611d03565b610983565b6040516102d991906120c5565b60405180910390f35b6102fc60048036038101906102f79190611b0a565b6109e2565b6040516103099190612287565b60405180910390f35b61032c60048036038101906103279190611b33565b610a88565b60405161033991906120aa565b60405180910390f35b60007f80ac58cd000000000000000000000000000000000000000000000000000000007bffffffffffffffffffffffffffffffffffffffffffffffffffffffff1916827bffffffffffffffffffffffffffffffffffffffffffffffffffffffff1916148061040d57507f5b5e139f000000000000000000000000000000000000000000000000000000007bffffffffffffffffffffffffffffffffffffffffffffffffffffffff1916827bffffffffffffffffffffffffffffffffffffffffffffffffffffffff1916145b8061041d575061041c82610b1c565b5b9050919050565b60606000805461043390612447565b80601f016020809104026020016040519081016040528092919081815260200182805461045f90612447565b80156104ac5780601f10610481576101008083540402835291602001916104ac565b820191906000526020600020905b81548152906001019060200180831161048f57829003601f168201915b5050505050905090565b60006104c182610b86565b6004600083815260200190815260200160002060009054906101000a900473ffffffffffffffffffffffffffffffffffffffff169050919050565b600061050782610694565b90508073ffffffffffffffffffffffffffffffffffffffff168373ffffffffffffffffffffffffffffffffffffffff161415610578576040517f08c379a000000000000000000000000000000000000000000000000000000000815260040161056f90612227565b60405180910390fd5b8073ffffffffffffffffffffffffffffffffffffffff16610597610bd1565b73ffffffffffffffffffffffffffffffffffffffff1614806105c657506105c5816105c0610bd1565b610a88565b5b610605576040517f08c379a00000000000000000000000000000000000000000000000000000000081526004016105fc90612247565b60405180910390fd5b61060f8383610bd9565b505050565b61062561061f610bd1565b82610c92565b610664576040517f08c379a000000000000000000000000000000000000000000000000000000000815260040161065b906120e7565b60405180910390fd5b61066f838383610d27565b505050565b61068f83838360405180602001604052806000815250610921565b505050565b6000806106a083611021565b9050600073ffffffffffffffffffffffffffffffffffffffff168173ffffffffffffffffffffffffffffffffffffffff161415610712576040517f08c379a000000000000000000000000000000000000000000000000000000000815260040161070990612207565b60405180910390fd5b80915050919050565b60008073ffffffffffffffffffffffffffffffffffffffff168273ffffffffffffffffffffffffffffffffffffffff16141561078c576040517f08c379a0000000000000000000000000000000000000000000000000000000008152600401610783906121c7565b60405180910390fd5b600360008373ffffffffffffffffffffffffffffffffffffffff1673ffffffffffffffffffffffffffffffffffffffff168152602001908152602001600020549050919050565b60006101f46006541061081b576040517f08c379a000000000000000000000000000000000000000000000000000000000815260040161081290612107565b60405180910390fd5b60016006600082825461082e919061233b565b925050819055506108418260065461105e565b600160096000600654815260200190815260200160002060006101000a81548160ff0219169083151502179055506006549050919050565b60606001805461088890612447565b80601f01602080910402602001604051908101604052809291908181526020018280546108b490612447565b80156109015780601f106108d657610100808354040283529160200191610901565b820191906000526020600020905b8154815290600101906020018083116108e457829003601f168201915b5050505050905090565b61091d610916610bd1565b838361127c565b5050565b61093261092c610bd1565b83610c92565b610971576040517f08c379a0000000000000000000000000000000000000000000000000000000008152600401610968906120e7565b60405180910390fd5b61097d848484846113e9565b50505050565b6060600061098f611445565b905060008151116109af57604051806020016040528060008152506109da565b806109b9846114d7565b6040516020016109ca929190612009565b6040516020818303038152906040525b915050919050565b60006103e860075410610a2a576040517f08c379a0000000000000000000000000000000000000000000000000000000008152600401610a2190612267565b60405180910390fd5b600160076000828254610a3d919061233b565b92505081905550610a508260075461105e565b600160096000600754815260200190815260200160002060006101000a81548160ff0219169083151502179055506007549050919050565b6000600560008473ffffffffffffffffffffffffffffffffffffffff1673ffffffffffffffffffffffffffffffffffffffff16815260200190815260200160002060008373ffffffffffffffffffffffffffffffffffffffff1673ffffffffffffffffffffffffffffffffffffffff16815260200190815260200160002060009054906101000a900460ff16905092915050565b60007f01ffc9a7000000000000000000000000000000000000000000000000000000007bffffffffffffffffffffffffffffffffffffffffffffffffffffffff1916827bffffffffffffffffffffffffffffffffffffffffffffffffffffffff1916149050919050565b610b8f816115fb565b610bce576040517f08c379a0000000000000000000000000000000000000000000000000000000008152600401610bc590612207565b60405180910390fd5b50565b600033905090565b816004600083815260200190815260200160002060006101000a81548173ffffffffffffffffffffffffffffffffffffffff021916908373ffffffffffffffffffffffffffffffffffffffff160217905550808273ffffffffffffffffffffffffffffffffffffffff16610c4c83610694565b73ffffffffffffffffffffffffffffffffffffffff167f8c5be1e5ebec7d5bd14f71427d1e84f3dd0314c0f7b2291e5b200ac8c7c3b92560405160405180910390a45050565b600080610c9e83610694565b90508073ffffffffffffffffffffffffffffffffffffffff168473ffffffffffffffffffffffffffffffffffffffff161480610ce05750610cdf8185610a88565b5b80610d1e57508373ffffffffffffffffffffffffffffffffffffffff16610d06846104b6565b73ffffffffffffffffffffffffffffffffffffffff16145b91505092915050565b8273ffffffffffffffffffffffffffffffffffffffff16610d4782610694565b73ffffffffffffffffffffffffffffffffffffffff1614610d9d576040517f08c379a0000000000000000000000000000000000000000000000000000000008152600401610d9490612147565b60405180910390fd5b600073ffffffffffffffffffffffffffffffffffffffff168273ffffffffffffffffffffffffffffffffffffffff161415610e0d576040517f08c379a0000000000000000000000000000000000000000000000000000000008152600401610e0490612187565b60405180910390fd5b610e1a838383600161163c565b8273ffffffffffffffffffffffffffffffffffffffff16610e3a82610694565b73ffffffffffffffffffffffffffffffffffffffff1614610e90576040517f08c379a0000000000000000000000000000000000000000000000000000000008152600401610e8790612147565b60405180910390fd5b6004600082815260200190815260200160002060006101000a81549073ffffffffffffffffffffffffffffffffffffffff02191690556001600360008573ffffffffffffffffffffffffffffffffffffffff1673ffffffffffffffffffffffffffffffffffffffff168152602001908152602001600020600082825403925050819055506001600360008473ffffffffffffffffffffffffffffffffffffffff1673ffffffffffffffffffffffffffffffffffffffff16815260200190815260200160002060008282540192505081905550816002600083815260200190815260200160002060006101000a81548173ffffffffffffffffffffffffffffffffffffffff021916908373ffffffffffffffffffffffffffffffffffffffff160217905550808273ffffffffffffffffffffffffffffffffffffffff168473ffffffffffffffffffffffffffffffffffffffff167fddf252ad1be2c89b69c2b068fc378daa952ba7f163c4a11628f55a4df523b3ef60405160405180910390a461101c8383836001611642565b505050565b60006002600083815260200190815260200160002060009054906101000a900473ffffffffffffffffffffffffffffffffffffffff169050919050565b600073ffffffffffffffffffffffffffffffffffffffff168273ffffffffffffffffffffffffffffffffffffffff1614156110ce576040517f08c379a00000000000000000000000000000000000000000000000000000000081526004016110c5906121e7565b60405180910390fd5b6110d7816115fb565b15611117576040517f08c379a000000000000000000000000000000000000000000000000000000000815260040161110e90612167565b60405180910390fd5b61112560008383600161163c565b61112e816115fb565b1561116e576040517f08c379a000000000000000000000000000000000000000000000000000000000815260040161116590612167565b60405180910390fd5b6001600360008473ffffffffffffffffffffffffffffffffffffffff1673ffffffffffffffffffffffffffffffffffffffff16815260200190815260200160002060008282540192505081905550816002600083815260200190815260200160002060006101000a81548173ffffffffffffffffffffffffffffffffffffffff021916908373ffffffffffffffffffffffffffffffffffffffff160217905550808273ffffffffffffffffffffffffffffffffffffffff16600073ffffffffffffffffffffffffffffffffffffffff167fddf252ad1be2c89b69c2b068fc378daa952ba7f163c4a11628f55a4df523b3ef60405160405180910390a4611278600083836001611642565b5050565b8173ffffffffffffffffffffffffffffffffffffffff168373ffffffffffffffffffffffffffffffffffffffff1614156112eb576040517f08c379a00000000000000000000000000000000000000000000000000000000081526004016112e2906121a7565b60405180910390fd5b80600560008573ffffffffffffffffffffffffffffffffffffffff1673ffffffffffffffffffffffffffffffffffffffff16815260200190815260200160002060008473ffffffffffffffffffffffffffffffffffffffff1673ffffffffffffffffffffffffffffffffffffffff16815260200190815260200160002060006101000a81548160ff0219169083151502179055508173ffffffffffffffffffffffffffffffffffffffff168373ffffffffffffffffffffffffffffffffffffffff167f17307eab39ab6107e8899845ad3d59bd9653f200f220920489ca2b5937696c31836040516113dc91906120aa565b60405180910390a3505050565b6113f4848484610d27565b61140084848484611648565b61143f576040517f08c379a000000000000000000000000000000000000000000000000000000000815260040161143690612127565b60405180910390fd5b50505050565b60606008805461145490612447565b80601f016020809104026020016040519081016040528092919081815260200182805461148090612447565b80156114cd5780601f106114a2576101008083540402835291602001916114cd565b820191906000526020600020905b8154815290600101906020018083116114b057829003601f168201915b5050505050905090565b6060600060016114e6846117df565b01905060008167ffffffffffffffff81111561152b577f4e487b7100000000000000000000000000000000000000000000000000000000600052604160045260246000fd5b6040519080825280601f01601f19166020018201604052801561155d5781602001600182028036833780820191505090505b509050600082602001820190505b6001156115f0578080600190039150507f3031323334353637383961626364656600000000000000000000000000000000600a86061a8153600a85816115da577f4e487b7100000000000000000000000000000000000000000000000000000000600052601260045260246000fd5b04945060008514156115eb576115f0565b61156b565b819350505050919050565b60008073ffffffffffffffffffffffffffffffffffffffff1661161d83611021565b73ffffffffffffffffffffffffffffffffffffffff1614159050919050565b50505050565b50505050565b60006116698473ffffffffffffffffffffffffffffffffffffffff16611a16565b156117d2578373ffffffffffffffffffffffffffffffffffffffff1663150b7a02611692610bd1565b8786866040518563ffffffff1660e01b81526004016116b4949392919061205e565b602060405180830381600087803b1580156116ce57600080fd5b505af19250505080156116ff57506040513d601f19601f820116820180604052508101906116fc9190611cda565b60015b611782573d806000811461172f576040519150601f19603f3d011682016040523d82523d6000602084013e611734565b606091505b5060008151141561177a576040517f08c379a000000000000000000000000000000000000000000000000000000000815260040161177190612127565b60405180910390fd5b805181602001fd5b63150b7a0260e01b7bffffffffffffffffffffffffffffffffffffffffffffffffffffffff1916817bffffffffffffffffffffffffffffffffffffffffffffffffffffffff1916149150506117d7565b600190505b949350505050565b600080600090507a184f03e93ff9f4daa797ed6e38ed64bf6a1f0100000000000000008310611863577a184f03e93ff9f4daa797ed6e38ed64bf6a1f0100000000000000008381611859577f4e487b7100000000000000000000000000000000000000000000000000000000600052601260045260246000fd5b0492506040810190505b6d04ee2d6d415b85acef810000000083106118c6576d04ee2d6d415b85acef810000000083816118bc577f4e487b7100000000000000000000000000000000000000000000000000000000600052601260045260246000fd5b0492506020810190505b662386f26fc10000831061191b57662386f26fc100008381611911577f4e487b7100000000000000000000000000000000000000000000000000000000600052601260045260246000fd5b0492506010810190505b6305f5e100831061196a576305f5e1008381611960577f4e487b7100000000000000000000000000000000000000000000000000000000600052601260045260246000fd5b0492506008810190505b61271083106119b55761271083816119ab577f4e487b7100000000000000000000000000000000000000000000000000000000600052601260045260246000fd5b0492506004810190505b606483106119fe57606483816119f4577f4e487b7100000000000000000000000000000000000000000000000000000000600052601260045260246000fd5b0492506002810190505b600a8310611a0d576001810190505b80915050919050565b6000808273ffffffffffffffffffffffffffffffffffffffff163b119050919050565b6000611a4c611a47846122c7565b6122a2565b905082815260208101848484011115611a6457600080fd5b611a6f848285612405565b509392505050565b600081359050611a86816128df565b92915050565b600081359050611a9b816128f6565b92915050565b600081359050611ab08161290d565b92915050565b600081519050611ac58161290d565b92915050565b600082601f830112611adc57600080fd5b8135611aec848260208601611a39565b91505092915050565b600081359050611b0481612924565b92915050565b600060208284031215611b1c57600080fd5b6000611b2a84828501611a77565b91505092915050565b60008060408385031215611b4657600080fd5b6000611b5485828601611a77565b9250506020611b6585828601611a77565b9150509250929050565b600080600060608486031215611b8457600080fd5b6000611b9286828701611a77565b9350506020611ba386828701611a77565b9250506040611bb486828701611af5565b9150509250925092565b60008060008060808587031215611bd457600080fd5b6000611be287828801611a77565b9450506020611bf387828801611a77565b9350506040611c0487828801611af5565b925050606085013567ffffffffffffffff811115611c2157600080fd5b611c2d87828801611acb565b91505092959194509250565b60008060408385031215611c4c57600080fd5b6000611c5a85828601611a77565b9250506020611c6b85828601611a8c565b9150509250929050565b60008060408385031215611c8857600080fd5b6000611c9685828601611a77565b9250506020611ca785828601611af5565b9150509250929050565b600060208284031215611cc357600080fd5b6000611cd184828501611aa1565b91505092915050565b600060208284031215611cec57600080fd5b6000611cfa84828501611ab6565b91505092915050565b600060208284031215611d1557600080fd5b6000611d2384828501611af5565b91505092915050565b611d3581612391565b82525050565b611d44816123a3565b82525050565b6000611d55826122f8565b611d5f818561230e565b9350611d6f818560208601612414565b611d7881612537565b840191505092915050565b6000611d8e82612303565b611d98818561231f565b9350611da8818560208601612414565b611db181612537565b840191505092915050565b6000611dc782612303565b611dd18185612330565b9350611de1818560208601612414565b80840191505092915050565b6000611dfa602d8361231f565b9150611e0582612548565b604082019050919050565b6000611e1d60208361231f565b9150611e2882612597565b602082019050919050565b6000611e4060328361231f565b9150611e4b826125c0565b604082019050919050565b6000611e6360258361231f565b9150611e6e8261260f565b604082019050919050565b6000611e86601c8361231f565b9150611e918261265e565b602082019050919050565b6000611ea960248361231f565b9150611eb482612687565b604082019050919050565b6000611ecc60198361231f565b9150611ed7826126d6565b602082019050919050565b6000611eef60298361231f565b9150611efa826126ff565b604082019050919050565b6000611f1260208361231f565b9150611f1d8261274e565b602082019050919050565b6000611f35600583612330565b9150611f4082612777565b600582019050919050565b6000611f5860188361231f565b9150611f63826127a0565b602082019050919050565b6000611f7b60218361231f565b9150611f86826127c9565b604082019050919050565b6000611f9e603d8361231f565b9150611fa982612818565b604082019050919050565b6000611fc1600983612330565b9150611fcc82612867565b600982019050919050565b6000611fe460228361231f565b9150611fef82612890565b604082019050919050565b612003816123fb565b82525050565b60006120158285611dbc565b915061202082611fb4565b915061202c8284611dbc565b915061203782611f28565b91508190509392505050565b60006020820190506120586000830184611d2c565b92915050565b60006080820190506120736000830187611d2c565b6120806020830186611d2c565b61208d6040830185611ffa565b818103606083015261209f8184611d4a565b905095945050505050565b60006020820190506120bf6000830184611d3b565b92915050565b600060208201905081810360008301526120df8184611d83565b905092915050565b6000602082019050818103600083015261210081611ded565b9050919050565b6000602082019050818103600083015261212081611e10565b9050919050565b6000602082019050818103600083015261214081611e33565b9050919050565b6000602082019050818103600083015261216081611e56565b9050919050565b6000602082019050818103600083015261218081611e79565b9050919050565b600060208201905081810360008301526121a081611e9c565b9050919050565b600060208201905081810360008301526121c081611ebf565b9050919050565b600060208201905081810360008301526121e081611ee2565b9050919050565b6000602082019050818103600083015261220081611f05565b9050919050565b6000602082019050818103600083015261222081611f4b565b9050919050565b6000602082019050818103600083015261224081611f6e565b9050919050565b6000602082019050818103600083015261226081611f91565b9050919050565b6000602082019050818103600083015261228081611fd7565b9050919050565b600060208201905061229c6000830184611ffa565b92915050565b60006122ac6122bd565b90506122b88282612479565b919050565b6000604051905090565b600067ffffffffffffffff8211156122e2576122e1612508565b5b6122eb82612537565b9050602081019050919050565b600081519050919050565b600081519050919050565b600082825260208201905092915050565b600082825260208201905092915050565b600081905092915050565b6000612346826123fb565b9150612351836123fb565b9250827fffffffffffffffffffffffffffffffffffffffffffffffffffffffffffffffff03821115612386576123856124aa565b5b828201905092915050565b600061239c826123db565b9050919050565b60008115159050919050565b60007fffffffff0000000000000000000000000000000000000000000000000000000082169050919050565b600073ffffffffffffffffffffffffffffffffffffffff82169050919050565b6000819050919050565b82818337600083830152505050565b60005b83811015612432578082015181840152602081019050612417565b83811115612441576000848401525b50505050565b6000600282049050600182168061245f57607f821691505b60208210811415612473576124726124d9565b5b50919050565b61248282612537565b810181811067ffffffffffffffff821117156124a1576124a0612508565b5b80604052505050565b7f4e487b7100000000000000000000000000000000000000000000000000000000600052601160045260246000fd5b7f4e487b7100000000000000000000000000000000000000000000000000000000600052602260045260246000fd5b7f4e487b7100000000000000000000000000000000000000000000000000000000600052604160045260246000fd5b6000601f19601f8301169050919050565b7f4552433732313a2063616c6c6572206973206e6f7420746f6b656e206f776e6560008201527f72206f7220617070726f76656400000000000000000000000000000000000000602082015250565b7f416c6c207261726520746f6b656e732068617665206265656e206d696e746564600082015250565b7f4552433732313a207472616e7366657220746f206e6f6e20455243373231526560008201527f63656976657220696d706c656d656e7465720000000000000000000000000000602082015250565b7f4552433732313a207472616e736665722066726f6d20696e636f72726563742060008201527f6f776e6572000000000000000000000000000000000000000000000000000000602082015250565b7f4552433732313a20746f6b656e20616c7265616479206d696e74656400000000600082015250565b7f4552433732313a207472616e7366657220746f20746865207a65726f2061646460008201527f7265737300000000000000000000000000000000000000000000000000000000602082015250565b7f4552433732313a20617070726f766520746f2063616c6c657200000000000000600082015250565b7f4552433732313a2061646472657373207a65726f206973206e6f74206120766160008201527f6c6964206f776e65720000000000000000000000000000000000000000000000602082015250565b7f4552433732313a206d696e7420746f20746865207a65726f2061646472657373600082015250565b7f2e6a736f6e000000000000000000000000000000000000000000000000000000600082015250565b7f4552433732313a20696e76616c696420746f6b656e2049440000000000000000600082015250565b7f4552433732313a20617070726f76616c20746f2063757272656e74206f776e6560008201527f7200000000000000000000000000000000000000000000000000000000000000602082015250565b7f4552433732313a20617070726f76652063616c6c6572206973206e6f7420746f60008201527f6b656e206f776e6572206f7220617070726f76656420666f7220616c6c000000602082015250565b7f6d657461646174612d0000000000000000000000000000000000000000000000600082015250565b7f416c6c20636f6d6d6f6e20746f6b656e732068617665206265656e206d696e7460008201527f6564000000000000000000000000000000000000000000000000000000000000602082015250565b6128e881612391565b81146128f357600080fd5b50565b6128ff816123a3565b811461290a57600080fd5b50565b612916816123af565b811461292157600080fd5b50565b61292d816123fb565b811461293857600080fd5b5056fea26469706673582212209a3d8ab9f286201747127595ba28683ba63cf9c5feb50e237f3015669e98887364736f6c63430008040033",
  "immutableReferences": {},
  "source": "// SPDX-License-Identifier: MIT\n\npragma solidity ^0.8.0;\n\nimport \"@openzeppelin/contracts/token/ERC721/ERC721.sol\";\nimport \"@openzeppelin/contracts/utils/Strings.sol\";\n\ncontract CryptoPals is ERC721 {\n    using Strings for uint256;\n\n    uint256 private _rareTokenIds = 0;\n    uint256 private _commonTokenIds = 500;\n    string private _baseTokenURI;\n    mapping (uint256 => bool) private _mintedTokens;\n\n    constructor(string memory baseTokenURI) ERC721(\"Crypto Pals\", \"CP\") {\n        _baseTokenURI = baseTokenURI;\n    }\n\n    function mintRare(address to) public returns (uint256) {\n        require(_rareTokenIds < 500, \"All rare tokens have been minted\");\n\n        _rareTokenIds += 1;\n        _mint(to, _rareTokenIds);\n        _mintedTokens[_rareTokenIds] = true;\n        return _rareTokenIds;\n    }\n\n    function mintCommon(address to) public returns (uint256) {\n        require(_commonTokenIds < 1000, \"All common tokens have been minted\");\n\n        _commonTokenIds += 1;\n        _mint(to, _commonTokenIds);\n        _mintedTokens[_commonTokenIds] = true;\n        return _commonTokenIds;\n    }\n\n    function _baseURI() internal view override returns (string memory) {\n        return _baseTokenURI;\n    }\n\n    function tokenURI(uint256 tokenId) public view virtual override returns (string memory) {\n        string memory baseURI = _baseURI();\n        return bytes(baseURI).length > 0 \n            ? string(abi.encodePacked(baseURI, \"metadata-\", tokenId.toString(), \".json\")) \n            : \"\";\n    }\n}\n",
  "sourcePath": "/Users/anush/cryptopals/contracts/CryptoPals.sol",
  "compiler": {
    "name": "solc",
    "version": "0.8.4+commit.c7e474f2.Emscripten.clang"
  },
  "schemaVersion": "3.4.13",
  "updatedAt": "2023-06-09T17:24:09.516Z",
  "networkType": "ethereum",
  "devdoc": {
    "kind": "dev",
    "methods": {
      "approve(address,uint256)": {
        "details": "See {IERC721-approve}."
      },
      "balanceOf(address)": {
        "details": "See {IERC721-balanceOf}."
      },
      "getApproved(uint256)": {
        "details": "See {IERC721-getApproved}."
      },
      "isApprovedForAll(address,address)": {
        "details": "See {IERC721-isApprovedForAll}."
      },
      "name()": {
        "details": "See {IERC721Metadata-name}."
      },
      "ownerOf(uint256)": {
        "details": "See {IERC721-ownerOf}."
      },
      "safeTransferFrom(address,address,uint256)": {
        "details": "See {IERC721-safeTransferFrom}."
      },
      "safeTransferFrom(address,address,uint256,bytes)": {
        "details": "See {IERC721-safeTransferFrom}."
      },
      "setApprovalForAll(address,bool)": {
        "details": "See {IERC721-setApprovalForAll}."
      },
      "supportsInterface(bytes4)": {
        "details": "See {IERC165-supportsInterface}."
      },
      "symbol()": {
        "details": "See {IERC721Metadata-symbol}."
      },
      "tokenURI(uint256)": {
        "details": "See {IERC721Metadata-tokenURI}."
      },
      "transferFrom(address,address,uint256)": {
        "details": "See {IERC721-transferFrom}."
      }
    },
    "version": 1
  },
  "userdoc": {
    "kind": "user",
    "methods": {},
    "version": 1
  }
}