{
  "contractName": "CryptoPals",
  "abi": [
    {
      "inputs": [
        {
          "internalType": "string",
          "name": "baseTokenURI",
          "type": "string"
        }
      ],
      "stateMutability": "nonpayable",
      "type": "constructor"
    },
    {
      "anonymous": false,
      "inputs": [
        {
          "indexed": true,
          "internalType": "address",
          "name": "owner",
          "type": "address"
        },
        {
          "indexed": true,
          "internalType": "address",
          "name": "approved",
          "type": "address"
        },
        {
          "indexed": true,
          "internalType": "uint256",
          "name": "tokenId",
          "type": "uint256"
        }
      ],
      "name": "Approval",
      "type": "event"
    },
    {
      "anonymous": false,
      "inputs": [
        {
          "indexed": true,
          "internalType": "address",
          "name": "owner",
          "type": "address"
        },
        {
          "indexed": true,
          "internalType": "address",
          "name": "operator",
          "type": "address"
        },
        {
          "indexed": false,
          "internalType": "bool",
          "name": "approved",
          "type": "bool"
        }
      ],
      "name": "ApprovalForAll",
      "type": "event"
    },
    {
      "anonymous": false,
      "inputs": [
        {
          "indexed": true,
          "internalType": "address",
          "name": "previousOwner",
          "type": "address"
        },
        {
          "indexed": true,
          "internalType": "address",
          "name": "newOwner",
          "type": "address"
        }
      ],
      "name": "OwnershipTransferred",
      "type": "event"
    },
    {
      "anonymous": false,
      "inputs": [
        {
          "indexed": true,
          "internalType": "address",
          "name": "from",
          "type": "address"
        },
        {
          "indexed": true,
          "internalType": "address",
          "name": "to",
          "type": "address"
        },
        {
          "indexed": true,
          "internalType": "uint256",
          "name": "tokenId",
          "type": "uint256"
        }
      ],
      "name": "Transfer",
      "type": "event"
    },
    {
      "inputs": [
        {
          "internalType": "address",
          "name": "to",
          "type": "address"
        },
        {
          "internalType": "uint256",
          "name": "tokenId",
          "type": "uint256"
        }
      ],
      "name": "approve",
      "outputs": [],
      "stateMutability": "nonpayable",
      "type": "function"
    },
    {
      "inputs": [
        {
          "internalType": "address",
          "name": "owner",
          "type": "address"
        }
      ],
      "name": "balanceOf",
      "outputs": [
        {
          "internalType": "uint256",
          "name": "",
          "type": "uint256"
        }
      ],
      "stateMutability": "view",
      "type": "function",
      "constant": true
    },
    {
      "inputs": [
        {
          "internalType": "uint256",
          "name": "tokenId",
          "type": "uint256"
        }
      ],
      "name": "getApproved",
      "outputs": [
        {
          "internalType": "address",
          "name": "",
          "type": "address"
        }
      ],
      "stateMutability": "view",
      "type": "function",
      "constant": true
    },
    {
      "inputs": [
        {
          "internalType": "address",
          "name": "owner",
          "type": "address"
        },
        {
          "internalType": "address",
          "name": "operator",
          "type": "address"
        }
      ],
      "name": "isApprovedForAll",
      "outputs": [
        {
          "internalType": "bool",
          "name": "",
          "type": "bool"
        }
      ],
      "stateMutability": "view",
      "type": "function",
      "constant": true
    },
    {
      "inputs": [],
      "name": "name",
      "outputs": [
        {
          "internalType": "string",
          "name": "",
          "type": "string"
        }
      ],
      "stateMutability": "view",
      "type": "function",
      "constant": true
    },
    {
      "inputs": [],
      "name": "owner",
      "outputs": [
        {
          "internalType": "address",
          "name": "",
          "type": "address"
        }
      ],
      "stateMutability": "view",
      "type": "function",
      "constant": true
    },
    {
      "inputs": [
        {
          "internalType": "uint256",
          "name": "tokenId",
          "type": "uint256"
        }
      ],
      "name": "ownerOf",
      "outputs": [
        {
          "internalType": "address",
          "name": "",
          "type": "address"
        }
      ],
      "stateMutability": "view",
      "type": "function",
      "constant": true
    },
    {
      "inputs": [],
      "name": "renounceOwnership",
      "outputs": [],
      "stateMutability": "nonpayable",
      "type": "function"
    },
    {
      "inputs": [
        {
          "internalType": "address",
          "name": "from",
          "type": "address"
        },
        {
          "internalType": "address",
          "name": "to",
          "type": "address"
        },
        {
          "internalType": "uint256",
          "name": "tokenId",
          "type": "uint256"
        }
      ],
      "name": "safeTransferFrom",
      "outputs": [],
      "stateMutability": "nonpayable",
      "type": "function"
    },
    {
      "inputs": [
        {
          "internalType": "address",
          "name": "from",
          "type": "address"
        },
        {
          "internalType": "address",
          "name": "to",
          "type": "address"
        },
        {
          "internalType": "uint256",
          "name": "tokenId",
          "type": "uint256"
        },
        {
          "internalType": "bytes",
          "name": "data",
          "type": "bytes"
        }
      ],
      "name": "safeTransferFrom",
      "outputs": [],
      "stateMutability": "nonpayable",
      "type": "function"
    },
    {
      "inputs": [
        {
          "internalType": "address",
          "name": "operator",
          "type": "address"
        },
        {
          "internalType": "bool",
          "name": "approved",
          "type": "bool"
        }
      ],
      "name": "setApprovalForAll",
      "outputs": [],
      "stateMutability": "nonpayable",
      "type": "function"
    },
    {
      "inputs": [
        {
          "internalType": "bytes4",
          "name": "interfaceId",
          "type": "bytes4"
        }
      ],
      "name": "supportsInterface",
      "outputs": [
        {
          "internalType": "bool",
          "name": "",
          "type": "bool"
        }
      ],
      "stateMutability": "view",
      "type": "function",
      "constant": true
    },
    {
      "inputs": [],
      "name": "symbol",
      "outputs": [
        {
          "internalType": "string",
          "name": "",
          "type": "string"
        }
      ],
      "stateMutability": "view",
      "type": "function",
      "constant": true
    },
    {
      "inputs": [
        {
          "internalType": "address",
          "name": "from",
          "type": "address"
        },
        {
          "internalType": "address",
          "name": "to",
          "type": "address"
        },
        {
          "internalType": "uint256",
          "name": "tokenId",
          "type": "uint256"
        }
      ],
      "name": "transferFrom",
      "outputs": [],
      "stateMutability": "nonpayable",
      "type": "function"
    },
    {
      "inputs": [
        {
          "internalType": "address",
          "name": "newOwner",
          "type": "address"
        }
      ],
      "name": "transferOwnership",
      "outputs": [],
      "stateMutability": "nonpayable",
      "type": "function"
    },
    {
      "inputs": [
        {
          "internalType": "address",
          "name": "to",
          "type": "address"
        }
      ],
      "name": "mintRare",
      "outputs": [
        {
          "internalType": "uint256",
          "name": "",
          "type": "uint256"
        }
      ],
      "stateMutability": "nonpayable",
      "type": "function"
    },
    {
      "inputs": [
        {
          "internalType": "address",
          "name": "to",
          "type": "address"
        }
      ],
      "name": "mintCommon",
      "outputs": [
        {
          "internalType": "uint256",
          "name": "",
          "type": "uint256"
        }
      ],
      "stateMutability": "nonpayable",
      "type": "function"
    },
    {
      "inputs": [
        {
          "internalType": "uint256",
          "name": "tokenId",
          "type": "uint256"
        }
      ],
      "name": "tokenURI",
      "outputs": [
        {
          "internalType": "string",
          "name": "",
          "type": "string"
        }
      ],
      "stateMutability": "view",
      "type": "function",
      "constant": true
    }
  ],
  "bytecode": "0x608060405260006007556101f46008553480156200001c57600080fd5b50604051620031c1380380620031c1833981810160405281019062000042919062000312565b6040518060400160405280600b81526020017f43727970746f2050616c730000000000000000000000000000000000000000008152506040518060400160405280600281526020017f43500000000000000000000000000000000000000000000000000000000000008152508160009080519060200190620000c6929190620001f0565b508060019080519060200190620000df929190620001f0565b50505062000102620000f66200012260201b60201c565b6200012a60201b60201c565b80600990805190602001906200011a929190620001f0565b5050620004c7565b600033905090565b6000600660009054906101000a900473ffffffffffffffffffffffffffffffffffffffff16905081600660006101000a81548173ffffffffffffffffffffffffffffffffffffffff021916908373ffffffffffffffffffffffffffffffffffffffff1602179055508173ffffffffffffffffffffffffffffffffffffffff168173ffffffffffffffffffffffffffffffffffffffff167f8be0079c531659141344cd1fd0a4f28419497f9722a3daafe3b4186f6b6457e060405160405180910390a35050565b828054620001fe90620003ec565b90600052602060002090601f0160209004810192826200022257600085556200026e565b82601f106200023d57805160ff19168380011785556200026e565b828001600101855582156200026e579182015b828111156200026d57825182559160200191906001019062000250565b5b5090506200027d919062000281565b5090565b5b808211156200029c57600081600090555060010162000282565b5090565b6000620002b7620002b18462000380565b62000357565b905082815260208101848484011115620002d057600080fd5b620002dd848285620003b6565b509392505050565b600082601f830112620002f757600080fd5b815162000309848260208601620002a0565b91505092915050565b6000602082840312156200032557600080fd5b600082015167ffffffffffffffff8111156200034057600080fd5b6200034e84828501620002e5565b91505092915050565b60006200036362000376565b905062000371828262000422565b919050565b6000604051905090565b600067ffffffffffffffff8211156200039e576200039d62000487565b5b620003a982620004b6565b9050602081019050919050565b60005b83811015620003d6578082015181840152602081019050620003b9565b83811115620003e6576000848401525b50505050565b600060028204905060018216806200040557607f821691505b602082108114156200041c576200041b62000458565b5b50919050565b6200042d82620004b6565b810181811067ffffffffffffffff821117156200044f576200044e62000487565b5b80604052505050565b7f4e487b7100000000000000000000000000000000000000000000000000000000600052602260045260246000fd5b7f4e487b7100000000000000000000000000000000000000000000000000000000600052604160045260246000fd5b6000601f19601f8301169050919050565b612cea80620004d76000396000f3fe608060405234801561001057600080fd5b50600436106101165760003560e01c80638d36f8f4116100a2578063b88d4fde11610071578063b88d4fde146102df578063c87b56dd146102fb578063d47e107e1461032b578063e985e9c51461035b578063f2fde38b1461038b57610116565b80638d36f8f4146102575780638da5cb5b1461028757806395d89b41146102a5578063a22cb465146102c357610116565b806323b872dd116100e957806323b872dd146101b557806342842e0e146101d15780636352211e146101ed57806370a082311461021d578063715018a61461024d57610116565b806301ffc9a71461011b57806306fdde031461014b578063081812fc14610169578063095ea7b314610199575b600080fd5b61013560048036038101906101309190611f2c565b6103a7565b604051610142919061236b565b60405180910390f35b610153610489565b6040516101609190612386565b60405180910390f35b610183600480360381019061017e9190611f7e565b61051b565b6040516101909190612304565b60405180910390f35b6101b360048036038101906101ae9190611ef0565b610561565b005b6101cf60048036038101906101ca9190611dea565b610679565b005b6101eb60048036038101906101e69190611dea565b6106d9565b005b61020760048036038101906102029190611f7e565b6106f9565b6040516102149190612304565b60405180910390f35b61023760048036038101906102329190611d85565b610780565b6040516102449190612588565b60405180910390f35b610255610838565b005b610271600480360381019061026c9190611d85565b61084c565b60405161027e9190612588565b60405180910390f35b61028f6108fa565b60405161029c9190612304565b60405180910390f35b6102ad610924565b6040516102ba9190612386565b60405180910390f35b6102dd60048036038101906102d89190611eb4565b6109b6565b005b6102f960048036038101906102f49190611e39565b6109cc565b005b61031560048036038101906103109190611f7e565b610a2e565b6040516103229190612386565b60405180910390f35b61034560048036038101906103409190611d85565b610a8d565b6040516103529190612588565b60405180910390f35b61037560048036038101906103709190611dae565b610b3b565b604051610382919061236b565b60405180910390f35b6103a560048036038101906103a09190611d85565b610bcf565b005b60007f80ac58cd000000000000000000000000000000000000000000000000000000007bffffffffffffffffffffffffffffffffffffffffffffffffffffffff1916827bffffffffffffffffffffffffffffffffffffffffffffffffffffffff1916148061047257507f5b5e139f000000000000000000000000000000000000000000000000000000007bffffffffffffffffffffffffffffffffffffffffffffffffffffffff1916827bffffffffffffffffffffffffffffffffffffffffffffffffffffffff1916145b80610482575061048182610c53565b5b9050919050565b60606000805461049890612748565b80601f01602080910402602001604051908101604052809291908181526020018280546104c490612748565b80156105115780601f106104e657610100808354040283529160200191610511565b820191906000526020600020905b8154815290600101906020018083116104f457829003601f168201915b5050505050905090565b600061052682610cbd565b6004600083815260200190815260200160002060009054906101000a900473ffffffffffffffffffffffffffffffffffffffff169050919050565b600061056c826106f9565b90508073ffffffffffffffffffffffffffffffffffffffff168373ffffffffffffffffffffffffffffffffffffffff1614156105dd576040517f08c379a00000000000000000000000000000000000000000000000000000000081526004016105d490612528565b60405180910390fd5b8073ffffffffffffffffffffffffffffffffffffffff166105fc610d08565b73ffffffffffffffffffffffffffffffffffffffff16148061062b575061062a81610625610d08565b610b3b565b5b61066a576040517f08c379a000000000000000000000000000000000000000000000000000000000815260040161066190612548565b60405180910390fd5b6106748383610d10565b505050565b61068a610684610d08565b82610dc9565b6106c9576040517f08c379a00000000000000000000000000000000000000000000000000000000081526004016106c0906123a8565b60405180910390fd5b6106d4838383610e5e565b505050565b6106f4838383604051806020016040528060008152506109cc565b505050565b60008061070583611158565b9050600073ffffffffffffffffffffffffffffffffffffffff168173ffffffffffffffffffffffffffffffffffffffff161415610777576040517f08c379a000000000000000000000000000000000000000000000000000000000815260040161076e90612508565b60405180910390fd5b80915050919050565b60008073ffffffffffffffffffffffffffffffffffffffff168273ffffffffffffffffffffffffffffffffffffffff1614156107f1576040517f08c379a00000000000000000000000000000000000000000000000000000000081526004016107e8906124a8565b60405180910390fd5b600360008373ffffffffffffffffffffffffffffffffffffffff1673ffffffffffffffffffffffffffffffffffffffff168152602001908152602001600020549050919050565b610840611195565b61084a6000611213565b565b6000610856611195565b6101f46007541061089c576040517f08c379a0000000000000000000000000000000000000000000000000000000008152600401610893906123c8565b60405180910390fd5b6001600760008282546108af919061263c565b925050819055506108c2826007546112d9565b6001600a6000600754815260200190815260200160002060006101000a81548160ff0219169083151502179055506007549050919050565b6000600660009054906101000a900473ffffffffffffffffffffffffffffffffffffffff16905090565b60606001805461093390612748565b80601f016020809104026020016040519081016040528092919081815260200182805461095f90612748565b80156109ac5780601f10610981576101008083540402835291602001916109ac565b820191906000526020600020905b81548152906001019060200180831161098f57829003601f168201915b5050505050905090565b6109c86109c1610d08565b83836114f7565b5050565b6109dd6109d7610d08565b83610dc9565b610a1c576040517f08c379a0000000000000000000000000000000000000000000000000000000008152600401610a13906123a8565b60405180910390fd5b610a2884848484611664565b50505050565b60606000610a3a6116c0565b90506000815111610a5a5760405180602001604052806000815250610a85565b80610a6484611752565b604051602001610a759291906122ca565b6040516020818303038152906040525b915050919050565b6000610a97611195565b6103e860085410610add576040517f08c379a0000000000000000000000000000000000000000000000000000000008152600401610ad490612568565b60405180910390fd5b600160086000828254610af0919061263c565b92505081905550610b03826008546112d9565b6001600a6000600854815260200190815260200160002060006101000a81548160ff0219169083151502179055506008549050919050565b6000600560008473ffffffffffffffffffffffffffffffffffffffff1673ffffffffffffffffffffffffffffffffffffffff16815260200190815260200160002060008373ffffffffffffffffffffffffffffffffffffffff1673ffffffffffffffffffffffffffffffffffffffff16815260200190815260200160002060009054906101000a900460ff16905092915050565b610bd7611195565b600073ffffffffffffffffffffffffffffffffffffffff168173ffffffffffffffffffffffffffffffffffffffff161415610c47576040517f08c379a0000000000000000000000000000000000000000000000000000000008152600401610c3e90612408565b60405180910390fd5b610c5081611213565b50565b60007f01ffc9a7000000000000000000000000000000000000000000000000000000007bffffffffffffffffffffffffffffffffffffffffffffffffffffffff1916827bffffffffffffffffffffffffffffffffffffffffffffffffffffffff1916149050919050565b610cc681611876565b610d05576040517f08c379a0000000000000000000000000000000000000000000000000000000008152600401610cfc90612508565b60405180910390fd5b50565b600033905090565b816004600083815260200190815260200160002060006101000a81548173ffffffffffffffffffffffffffffffffffffffff021916908373ffffffffffffffffffffffffffffffffffffffff160217905550808273ffffffffffffffffffffffffffffffffffffffff16610d83836106f9565b73ffffffffffffffffffffffffffffffffffffffff167f8c5be1e5ebec7d5bd14f71427d1e84f3dd0314c0f7b2291e5b200ac8c7c3b92560405160405180910390a45050565b600080610dd5836106f9565b90508073ffffffffffffffffffffffffffffffffffffffff168473ffffffffffffffffffffffffffffffffffffffff161480610e175750610e168185610b3b565b5b80610e5557508373ffffffffffffffffffffffffffffffffffffffff16610e3d8461051b565b73ffffffffffffffffffffffffffffffffffffffff16145b91505092915050565b8273ffffffffffffffffffffffffffffffffffffffff16610e7e826106f9565b73ffffffffffffffffffffffffffffffffffffffff1614610ed4576040517f08c379a0000000000000000000000000000000000000000000000000000000008152600401610ecb90612428565b60405180910390fd5b600073ffffffffffffffffffffffffffffffffffffffff168273ffffffffffffffffffffffffffffffffffffffff161415610f44576040517f08c379a0000000000000000000000000000000000000000000000000000000008152600401610f3b90612468565b60405180910390fd5b610f5183838360016118b7565b8273ffffffffffffffffffffffffffffffffffffffff16610f71826106f9565b73ffffffffffffffffffffffffffffffffffffffff1614610fc7576040517f08c379a0000000000000000000000000000000000000000000000000000000008152600401610fbe90612428565b60405180910390fd5b6004600082815260200190815260200160002060006101000a81549073ffffffffffffffffffffffffffffffffffffffff02191690556001600360008573ffffffffffffffffffffffffffffffffffffffff1673ffffffffffffffffffffffffffffffffffffffff168152602001908152602001600020600082825403925050819055506001600360008473ffffffffffffffffffffffffffffffffffffffff1673ffffffffffffffffffffffffffffffffffffffff16815260200190815260200160002060008282540192505081905550816002600083815260200190815260200160002060006101000a81548173ffffffffffffffffffffffffffffffffffffffff021916908373ffffffffffffffffffffffffffffffffffffffff160217905550808273ffffffffffffffffffffffffffffffffffffffff168473ffffffffffffffffffffffffffffffffffffffff167fddf252ad1be2c89b69c2b068fc378daa952ba7f163c4a11628f55a4df523b3ef60405160405180910390a461115383838360016118bd565b505050565b60006002600083815260200190815260200160002060009054906101000a900473ffffffffffffffffffffffffffffffffffffffff169050919050565b61119d610d08565b73ffffffffffffffffffffffffffffffffffffffff166111bb6108fa565b73ffffffffffffffffffffffffffffffffffffffff1614611211576040517f08c379a0000000000000000000000000000000000000000000000000000000008152600401611208906124e8565b60405180910390fd5b565b6000600660009054906101000a900473ffffffffffffffffffffffffffffffffffffffff16905081600660006101000a81548173ffffffffffffffffffffffffffffffffffffffff021916908373ffffffffffffffffffffffffffffffffffffffff1602179055508173ffffffffffffffffffffffffffffffffffffffff168173ffffffffffffffffffffffffffffffffffffffff167f8be0079c531659141344cd1fd0a4f28419497f9722a3daafe3b4186f6b6457e060405160405180910390a35050565b600073ffffffffffffffffffffffffffffffffffffffff168273ffffffffffffffffffffffffffffffffffffffff161415611349576040517f08c379a0000000000000000000000000000000000000000000000000000000008152600401611340906124c8565b60405180910390fd5b61135281611876565b15611392576040517f08c379a000000000000000000000000000000000000000000000000000000000815260040161138990612448565b60405180910390fd5b6113a06000838360016118b7565b6113a981611876565b156113e9576040517f08c379a00000000000000000000000000000000000000000000000000000000081526004016113e090612448565b60405180910390fd5b6001600360008473ffffffffffffffffffffffffffffffffffffffff1673ffffffffffffffffffffffffffffffffffffffff16815260200190815260200160002060008282540192505081905550816002600083815260200190815260200160002060006101000a81548173ffffffffffffffffffffffffffffffffffffffff021916908373ffffffffffffffffffffffffffffffffffffffff160217905550808273ffffffffffffffffffffffffffffffffffffffff16600073ffffffffffffffffffffffffffffffffffffffff167fddf252ad1be2c89b69c2b068fc378daa952ba7f163c4a11628f55a4df523b3ef60405160405180910390a46114f36000838360016118bd565b5050565b8173ffffffffffffffffffffffffffffffffffffffff168373ffffffffffffffffffffffffffffffffffffffff161415611566576040517f08c379a000000000000000000000000000000000000000000000000000000000815260040161155d90612488565b60405180910390fd5b80600560008573ffffffffffffffffffffffffffffffffffffffff1673ffffffffffffffffffffffffffffffffffffffff16815260200190815260200160002060008473ffffffffffffffffffffffffffffffffffffffff1673ffffffffffffffffffffffffffffffffffffffff16815260200190815260200160002060006101000a81548160ff0219169083151502179055508173ffffffffffffffffffffffffffffffffffffffff168373ffffffffffffffffffffffffffffffffffffffff167f17307eab39ab6107e8899845ad3d59bd9653f200f220920489ca2b5937696c3183604051611657919061236b565b60405180910390a3505050565b61166f848484610e5e565b61167b848484846118c3565b6116ba576040517f08c379a00000000000000000000000000000000000000000000000000000000081526004016116b1906123e8565b60405180910390fd5b50505050565b6060600980546116cf90612748565b80601f01602080910402602001604051908101604052809291908181526020018280546116fb90612748565b80156117485780601f1061171d57610100808354040283529160200191611748565b820191906000526020600020905b81548152906001019060200180831161172b57829003601f168201915b5050505050905090565b60606000600161176184611a5a565b01905060008167ffffffffffffffff8111156117a6577f4e487b7100000000000000000000000000000000000000000000000000000000600052604160045260246000fd5b6040519080825280601f01601f1916602001820160405280156117d85781602001600182028036833780820191505090505b509050600082602001820190505b60011561186b578080600190039150507f3031323334353637383961626364656600000000000000000000000000000000600a86061a8153600a8581611855577f4e487b7100000000000000000000000000000000000000000000000000000000600052601260045260246000fd5b04945060008514156118665761186b565b6117e6565b819350505050919050565b60008073ffffffffffffffffffffffffffffffffffffffff1661189883611158565b73ffffffffffffffffffffffffffffffffffffffff1614159050919050565b50505050565b50505050565b60006118e48473ffffffffffffffffffffffffffffffffffffffff16611c91565b15611a4d578373ffffffffffffffffffffffffffffffffffffffff1663150b7a0261190d610d08565b8786866040518563ffffffff1660e01b815260040161192f949392919061231f565b602060405180830381600087803b15801561194957600080fd5b505af192505050801561197a57506040513d601f19601f820116820180604052508101906119779190611f55565b60015b6119fd573d80600081146119aa576040519150601f19603f3d011682016040523d82523d6000602084013e6119af565b606091505b506000815114156119f5576040517f08c379a00000000000000000000000000000000000000000000000000000000081526004016119ec906123e8565b60405180910390fd5b805181602001fd5b63150b7a0260e01b7bffffffffffffffffffffffffffffffffffffffffffffffffffffffff1916817bffffffffffffffffffffffffffffffffffffffffffffffffffffffff191614915050611a52565b600190505b949350505050565b600080600090507a184f03e93ff9f4daa797ed6e38ed64bf6a1f0100000000000000008310611ade577a184f03e93ff9f4daa797ed6e38ed64bf6a1f0100000000000000008381611ad4577f4e487b7100000000000000000000000000000000000000000000000000000000600052601260045260246000fd5b0492506040810190505b6d04ee2d6d415b85acef81000000008310611b41576d04ee2d6d415b85acef81000000008381611b37577f4e487b7100000000000000000000000000000000000000000000000000000000600052601260045260246000fd5b0492506020810190505b662386f26fc100008310611b9657662386f26fc100008381611b8c577f4e487b7100000000000000000000000000000000000000000000000000000000600052601260045260246000fd5b0492506010810190505b6305f5e1008310611be5576305f5e1008381611bdb577f4e487b7100000000000000000000000000000000000000000000000000000000600052601260045260246000fd5b0492506008810190505b6127108310611c30576127108381611c26577f4e487b7100000000000000000000000000000000000000000000000000000000600052601260045260246000fd5b0492506004810190505b60648310611c795760648381611c6f577f4e487b7100000000000000000000000000000000000000000000000000000000600052601260045260246000fd5b0492506002810190505b600a8310611c88576001810190505b80915050919050565b6000808273ffffffffffffffffffffffffffffffffffffffff163b119050919050565b6000611cc7611cc2846125c8565b6125a3565b905082815260208101848484011115611cdf57600080fd5b611cea848285612706565b509392505050565b600081359050611d0181612c58565b92915050565b600081359050611d1681612c6f565b92915050565b600081359050611d2b81612c86565b92915050565b600081519050611d4081612c86565b92915050565b600082601f830112611d5757600080fd5b8135611d67848260208601611cb4565b91505092915050565b600081359050611d7f81612c9d565b92915050565b600060208284031215611d9757600080fd5b6000611da584828501611cf2565b91505092915050565b60008060408385031215611dc157600080fd5b6000611dcf85828601611cf2565b9250506020611de085828601611cf2565b9150509250929050565b600080600060608486031215611dff57600080fd5b6000611e0d86828701611cf2565b9350506020611e1e86828701611cf2565b9250506040611e2f86828701611d70565b9150509250925092565b60008060008060808587031215611e4f57600080fd5b6000611e5d87828801611cf2565b9450506020611e6e87828801611cf2565b9350506040611e7f87828801611d70565b925050606085013567ffffffffffffffff811115611e9c57600080fd5b611ea887828801611d46565b91505092959194509250565b60008060408385031215611ec757600080fd5b6000611ed585828601611cf2565b9250506020611ee685828601611d07565b9150509250929050565b60008060408385031215611f0357600080fd5b6000611f1185828601611cf2565b9250506020611f2285828601611d70565b9150509250929050565b600060208284031215611f3e57600080fd5b6000611f4c84828501611d1c565b91505092915050565b600060208284031215611f6757600080fd5b6000611f7584828501611d31565b91505092915050565b600060208284031215611f9057600080fd5b6000611f9e84828501611d70565b91505092915050565b611fb081612692565b82525050565b611fbf816126a4565b82525050565b6000611fd0826125f9565b611fda818561260f565b9350611fea818560208601612715565b611ff381612838565b840191505092915050565b600061200982612604565b6120138185612620565b9350612023818560208601612715565b61202c81612838565b840191505092915050565b600061204282612604565b61204c8185612631565b935061205c818560208601612715565b80840191505092915050565b6000612075602d83612620565b915061208082612849565b604082019050919050565b6000612098602083612620565b91506120a382612898565b602082019050919050565b60006120bb603283612620565b91506120c6826128c1565b604082019050919050565b60006120de602683612620565b91506120e982612910565b604082019050919050565b6000612101602583612620565b915061210c8261295f565b604082019050919050565b6000612124601c83612620565b915061212f826129ae565b602082019050919050565b6000612147602483612620565b9150612152826129d7565b604082019050919050565b600061216a601983612620565b915061217582612a26565b602082019050919050565b600061218d602983612620565b915061219882612a4f565b604082019050919050565b60006121b0602083612620565b91506121bb82612a9e565b602082019050919050565b60006121d3600583612631565b91506121de82612ac7565b600582019050919050565b60006121f6602083612620565b915061220182612af0565b602082019050919050565b6000612219601883612620565b915061222482612b19565b602082019050919050565b600061223c602183612620565b915061224782612b42565b604082019050919050565b600061225f603d83612620565b915061226a82612b91565b604082019050919050565b6000612282600983612631565b915061228d82612be0565b600982019050919050565b60006122a5602283612620565b91506122b082612c09565b604082019050919050565b6122c4816126fc565b82525050565b60006122d68285612037565b91506122e182612275565b91506122ed8284612037565b91506122f8826121c6565b91508190509392505050565b60006020820190506123196000830184611fa7565b92915050565b60006080820190506123346000830187611fa7565b6123416020830186611fa7565b61234e60408301856122bb565b81810360608301526123608184611fc5565b905095945050505050565b60006020820190506123806000830184611fb6565b92915050565b600060208201905081810360008301526123a08184611ffe565b905092915050565b600060208201905081810360008301526123c181612068565b9050919050565b600060208201905081810360008301526123e18161208b565b9050919050565b60006020820190508181036000830152612401816120ae565b9050919050565b60006020820190508181036000830152612421816120d1565b9050919050565b60006020820190508181036000830152612441816120f4565b9050919050565b6000602082019050818103600083015261246181612117565b9050919050565b600060208201905081810360008301526124818161213a565b9050919050565b600060208201905081810360008301526124a18161215d565b9050919050565b600060208201905081810360008301526124c181612180565b9050919050565b600060208201905081810360008301526124e1816121a3565b9050919050565b60006020820190508181036000830152612501816121e9565b9050919050565b600060208201905081810360008301526125218161220c565b9050919050565b600060208201905081810360008301526125418161222f565b9050919050565b6000602082019050818103600083015261256181612252565b9050919050565b6000602082019050818103600083015261258181612298565b9050919050565b600060208201905061259d60008301846122bb565b92915050565b60006125ad6125be565b90506125b9828261277a565b919050565b6000604051905090565b600067ffffffffffffffff8211156125e3576125e2612809565b5b6125ec82612838565b9050602081019050919050565b600081519050919050565b600081519050919050565b600082825260208201905092915050565b600082825260208201905092915050565b600081905092915050565b6000612647826126fc565b9150612652836126fc565b9250827fffffffffffffffffffffffffffffffffffffffffffffffffffffffffffffffff03821115612687576126866127ab565b5b828201905092915050565b600061269d826126dc565b9050919050565b60008115159050919050565b60007fffffffff0000000000000000000000000000000000000000000000000000000082169050919050565b600073ffffffffffffffffffffffffffffffffffffffff82169050919050565b6000819050919050565b82818337600083830152505050565b60005b83811015612733578082015181840152602081019050612718565b83811115612742576000848401525b50505050565b6000600282049050600182168061276057607f821691505b60208210811415612774576127736127da565b5b50919050565b61278382612838565b810181811067ffffffffffffffff821117156127a2576127a1612809565b5b80604052505050565b7f4e487b7100000000000000000000000000000000000000000000000000000000600052601160045260246000fd5b7f4e487b7100000000000000000000000000000000000000000000000000000000600052602260045260246000fd5b7f4e487b7100000000000000000000000000000000000000000000000000000000600052604160045260246000fd5b6000601f19601f8301169050919050565b7f4552433732313a2063616c6c6572206973206e6f7420746f6b656e206f776e6560008201527f72206f7220617070726f76656400000000000000000000000000000000000000602082015250565b7f416c6c207261726520746f6b656e732068617665206265656e206d696e746564600082015250565b7f4552433732313a207472616e7366657220746f206e6f6e20455243373231526560008201527f63656976657220696d706c656d656e7465720000000000000000000000000000602082015250565b7f4f776e61626c653a206e6577206f776e657220697320746865207a65726f206160008201527f6464726573730000000000000000000000000000000000000000000000000000602082015250565b7f4552433732313a207472616e736665722066726f6d20696e636f72726563742060008201527f6f776e6572000000000000000000000000000000000000000000000000000000602082015250565b7f4552433732313a20746f6b656e20616c7265616479206d696e74656400000000600082015250565b7f4552433732313a207472616e7366657220746f20746865207a65726f2061646460008201527f7265737300000000000000000000000000000000000000000000000000000000602082015250565b7f4552433732313a20617070726f766520746f2063616c6c657200000000000000600082015250565b7f4552433732313a2061646472657373207a65726f206973206e6f74206120766160008201527f6c6964206f776e65720000000000000000000000000000000000000000000000602082015250565b7f4552433732313a206d696e7420746f20746865207a65726f2061646472657373600082015250565b7f2e6a736f6e000000000000000000000000000000000000000000000000000000600082015250565b7f4f776e61626c653a2063616c6c6572206973206e6f7420746865206f776e6572600082015250565b7f4552433732313a20696e76616c696420746f6b656e2049440000000000000000600082015250565b7f4552433732313a20617070726f76616c20746f2063757272656e74206f776e6560008201527f7200000000000000000000000000000000000000000000000000000000000000602082015250565b7f4552433732313a20617070726f76652063616c6c6572206973206e6f7420746f60008201527f6b656e206f776e6572206f7220617070726f76656420666f7220616c6c000000602082015250565b7f6d657461646174612d0000000000000000000000000000000000000000000000600082015250565b7f416c6c20636f6d6d6f6e20746f6b656e732068617665206265656e206d696e7460008201527f6564000000000000000000000000000000000000000000000000000000000000602082015250565b612c6181612692565b8114612c6c57600080fd5b50565b612c78816126a4565b8114612c8357600080fd5b50565b612c8f816126b0565b8114612c9a57600080fd5b50565b612ca6816126fc565b8114612cb157600080fd5b5056fea2646970667358221220790650cb62bac6e07892ddd6addac93c4b2f638f5b722a9d75683db85c65410d64736f6c63430008040033",
  "immutableReferences": {},
  "source": "// SPDX-License-Identifier: MIT\n\npragma solidity ^0.8.0;\n\nimport \"@openzeppelin/contracts/token/ERC721/ERC721.sol\";\nimport \"@openzeppelin/contracts/access/Ownable.sol\";\nimport \"@openzeppelin/contracts/utils/Strings.sol\";\n\ncontract CryptoPals is ERC721, Ownable {\n    using Strings for uint256;\n\n    uint256 private _rareTokenIds = 0;\n    uint256 private _commonTokenIds = 500;\n    string private _baseTokenURI;\n    mapping (uint256 => bool) private _mintedTokens;\n\n    constructor(string memory baseTokenURI) ERC721(\"Crypto Pals\", \"CP\") {\n        _baseTokenURI = baseTokenURI;\n    }\n\n    function mintRare(address to) public onlyOwner returns (uint256) {\n        require(_rareTokenIds < 500, \"All rare tokens have been minted\");\n\n        _rareTokenIds += 1;\n        _mint(to, _rareTokenIds);\n        _mintedTokens[_rareTokenIds] = true;\n        return _rareTokenIds;\n    }\n\n    function mintCommon(address to) public onlyOwner returns (uint256) {\n        require(_commonTokenIds < 1000, \"All common tokens have been minted\");\n\n        _commonTokenIds += 1;\n        _mint(to, _commonTokenIds);\n        _mintedTokens[_commonTokenIds] = true;\n        return _commonTokenIds;\n    }\n\n    function _baseURI() internal view override returns (string memory) {\n        return _baseTokenURI;\n    }\n\n    function tokenURI(uint256 tokenId) public view virtual override returns (string memory) {\n        string memory baseURI = _baseURI();\n        return bytes(baseURI).length > 0 \n            ? string(abi.encodePacked(baseURI, \"metadata-\", tokenId.toString(), \".json\")) \n            : \"\";\n    }\n}\n",
  "sourcePath": "/Users/anush/cryptopals/contracts/CryptoPals.sol",
  "compiler": {
    "name": "solc",
    "version": "0.8.4+commit.c7e474f2.Emscripten.clang"
  },
  "schemaVersion": "3.4.13",
  "updatedAt": "2023-06-09T15:30:58.226Z",
  "networkType": "ethereum",
  "devdoc": {
    "kind": "dev",
    "methods": {
      "approve(address,uint256)": {
        "details": "See {IERC721-approve}."
      },
      "balanceOf(address)": {
        "details": "See {IERC721-balanceOf}."
      },
      "getApproved(uint256)": {
        "details": "See {IERC721-getApproved}."
      },
      "isApprovedForAll(address,address)": {
        "details": "See {IERC721-isApprovedForAll}."
      },
      "name()": {
        "details": "See {IERC721Metadata-name}."
      },
      "owner()": {
        "details": "Returns the address of the current owner."
      },
      "ownerOf(uint256)": {
        "details": "See {IERC721-ownerOf}."
      },
      "renounceOwnership()": {
        "details": "Leaves the contract without owner. It will not be possible to call `onlyOwner` functions. Can only be called by the current owner. NOTE: Renouncing ownership will leave the contract without an owner, thereby disabling any functionality that is only available to the owner."
      },
      "safeTransferFrom(address,address,uint256)": {
        "details": "See {IERC721-safeTransferFrom}."
      },
      "safeTransferFrom(address,address,uint256,bytes)": {
        "details": "See {IERC721-safeTransferFrom}."
      },
      "setApprovalForAll(address,bool)": {
        "details": "See {IERC721-setApprovalForAll}."
      },
      "supportsInterface(bytes4)": {
        "details": "See {IERC165-supportsInterface}."
      },
      "symbol()": {
        "details": "See {IERC721Metadata-symbol}."
      },
      "tokenURI(uint256)": {
        "details": "See {IERC721Metadata-tokenURI}."
      },
      "transferFrom(address,address,uint256)": {
        "details": "See {IERC721-transferFrom}."
      },
      "transferOwnership(address)": {
        "details": "Transfers ownership of the contract to a new account (`newOwner`). Can only be called by the current owner."
      }
    },
    "version": 1
  },
  "userdoc": {
    "kind": "user",
    "methods": {},
    "version": 1
  }
}